{"abi":[{"type":"constructor","inputs":[],"stateMutability":"nonpayable"},{"type":"function","name":"controlUnit","inputs":[],"outputs":[{"name":"status","type":"uint8","internalType":"uint8"},{"name":"registeredGateways","type":"uint256","internalType":"uint256"},{"name":"currentCapacity","type":"uint256","internalType":"uint256"},{"name":"allocatedAllowance","type":"uint256","internalType":"uint256"}],"stateMutability":"view"},{"type":"function","name":"gateways","inputs":[{"name":"","type":"address","internalType":"address"}],"outputs":[{"name":"status","type":"uint8","internalType":"uint8"},{"name":"quota","type":"uint256","internalType":"uint256"},{"name":"totalUsage","type":"uint256","internalType":"uint256"}],"stateMutability":"view"},{"type":"function","name":"registerGateway","inputs":[{"name":"_gateway","type":"address","internalType":"address"}],"outputs":[],"stateMutability":"payable"},{"type":"function","name":"requestPowerDelivery","inputs":[{"name":"_amount","type":"uint256","internalType":"uint256"},{"name":"_receiver","type":"address","internalType":"address"}],"outputs":[],"stateMutability":"nonpayable"},{"type":"function","name":"requestQuotaIncrease","inputs":[{"name":"_gateway","type":"address","internalType":"address"}],"outputs":[],"stateMutability":"payable"},{"type":"event","name":"GatewayQuotaIncrease","inputs":[{"name":"gateway","type":"address","indexed":true,"internalType":"address"},{"name":"quotaAmount","type":"uint256","indexed":false,"internalType":"uint256"}],"anonymous":false},{"type":"event","name":"GatewayRegistered","inputs":[{"name":"gateway","type":"address","indexed":true,"internalType":"address"}],"anonymous":false},{"type":"event","name":"PowerDeliveryRequest","inputs":[{"name":"gateway","type":"address","indexed":true,"internalType":"address"},{"name":"powerAmount","type":"uint256","indexed":false,"internalType":"uint256"}],"anonymous":false},{"type":"event","name":"PowerDeliverySuccess","inputs":[{"name":"gateway","type":"address","indexed":true,"internalType":"address"},{"name":"powerAmount","type":"uint256","indexed":false,"internalType":"uint256"}],"anonymous":false}],"bytecode":{"object":"0x6080604052348015600e575f5ffd5b5060015f5f015f6101000a81548160ff021916908360ff16021790555068056bc75e2d631000005f600201819055505f5f60030181905550611310806100535f395ff3fe608060405260043610610049575f3560e01c8063324ad5861461004d5780633c4426a4146100755780639022c19c14610091578063a12a4df8146100cf578063a197d002146100fc575b5f5ffd5b348015610058575f5ffd5b50610073600480360381019061006e9190610a99565b610118565b005b61008f600480360381019061008a9190610ad7565b6104c6565b005b34801561009c575f5ffd5b506100b760048036038101906100b29190610ad7565b610723565b6040516100c693929190610b2c565b60405180910390f35b3480156100da575f5ffd5b506100e3610755565b6040516100f39493929190610b61565b60405180910390f35b61011660048036038101906101119190610ad7565b61077d565b005b3273ffffffffffffffffffffffffffffffffffffffff163373ffffffffffffffffffffffffffffffffffffffff1614610186576040517f08c379a000000000000000000000000000000000000000000000000000000000815260040161017d90610c24565b60405180910390fd5b678ac7230489e800005f6002015410156101b75760035f5f015f6101000a81548160ff021916908360ff1602179055505b5f60045f8373ffffffffffffffffffffffffffffffffffffffff1673ffffffffffffffffffffffffffffffffffffffff1681526020019081526020015f209050600160ff16815f015f9054906101000a900460ff1660ff161461024f576040517f08c379a000000000000000000000000000000000000000000000000000000000815260040161024690610cb2565b60405180910390fd5b5f8311610291576040517f08c379a000000000000000000000000000000000000000000000000000000000815260040161028890610d40565b60405180910390fd5b80600101548311156102d8576040517f08c379a00000000000000000000000000000000000000000000000000000000081526004016102cf90610da8565b60405180910390fd5b8173ffffffffffffffffffffffffffffffffffffffff167f3283b72465e6fb1c5a42840f14b0a024a2ecf0ac5478cfff3338b7fe4d1373de8460405161031e9190610dc6565b60405180910390a260025f5f015f6101000a81548160ff021916908360ff160217905550825f6002015f8282546103559190610e0c565b925050819055505f8273ffffffffffffffffffffffffffffffffffffffff16637ec5007a856040518263ffffffff1660e01b81526004016103969190610dc6565b6020604051808303815f875af11580156103b2573d5f5f3e3d5ffd5b505050506040513d601f19601f820116820180604052508101906103d69190610e74565b905080610418576040517f08c379a000000000000000000000000000000000000000000000000000000000815260040161040f90610ee9565b60405180910390fd5b6002825f015f6101000a81548160ff021916908360ff16021790555083826002015f8282546104479190610f07565b925050819055506104566109d8565b6001825f015f6101000a81548160ff021916908360ff1602179055508273ffffffffffffffffffffffffffffffffffffffff167fc303f77669a8be84fee7899b99ddeab599993e5ead94a9589b41831140a12902856040516104b89190610dc6565b60405180910390a250505050565b3273ffffffffffffffffffffffffffffffffffffffff163373ffffffffffffffffffffffffffffffffffffffff1614610534576040517f08c379a000000000000000000000000000000000000000000000000000000000815260040161052b90610c24565b60405180910390fd5b678ac7230489e800005f6002015410156105655760035f5f015f6101000a81548160ff021916908360ff1602179055505b5f34116105a7576040517f08c379a000000000000000000000000000000000000000000000000000000000815260040161059e90610faa565b60405180910390fd5b5f60045f8373ffffffffffffffffffffffffffffffffffffffff1673ffffffffffffffffffffffffffffffffffffffff1681526020019081526020015f2090505f60ff16815f015f9054906101000a900460ff1660ff160361063e576040517f08c379a000000000000000000000000000000000000000000000000000000000815260040161063590611038565b60405180910390fd5b5f81600101549050678ac7230489e80000348261065b9190610f07565b111561069c576040517f08c379a0000000000000000000000000000000000000000000000000000000008152600401610693906110c6565b60405180910390fd5b34826001015f8282546106af9190610f07565b92505081905550345f6003015f8282546106c99190610f07565b925050819055508273ffffffffffffffffffffffffffffffffffffffff167fb0e98ca922f9ad3cbd25ab949b19ea0c6897b757a42a7540fd4bfd39bfba19c4346040516107169190610dc6565b60405180910390a2505050565b6004602052805f5260405f205f91509050805f015f9054906101000a900460ff16908060010154908060020154905083565b5f805f015f9054906101000a900460ff16908060010154908060020154908060030154905084565b3273ffffffffffffffffffffffffffffffffffffffff163373ffffffffffffffffffffffffffffffffffffffff16146107eb576040517f08c379a00000000000000000000000000000000000000000000000000000000081526004016107e290610c24565b60405180910390fd5b678ac7230489e800005f60020154101561081c5760035f5f015f6101000a81548160ff021916908360ff1602179055505b600560ff165f6001015410610866576040517f08c379a000000000000000000000000000000000000000000000000000000000815260040161085d906111a0565b60405180910390fd5b6801158e460913d0000034146108b1576040517f08c379a00000000000000000000000000000000000000000000000000000000081526004016108a89061122e565b60405180910390fd5b5f60045f8373ffffffffffffffffffffffffffffffffffffffff1673ffffffffffffffffffffffffffffffffffffffff1681526020019081526020015f2090505f60ff16815f015f9054906101000a900460ff1660ff1614610948576040517f08c379a000000000000000000000000000000000000000000000000000000000815260040161093f906112bc565b60405180910390fd5b6001815f015f6101000a81548160ff021916908360ff1602179055505f81600101819055505f816002018190555060015f6001015f82825461098a9190610f07565b925050819055508173ffffffffffffffffffffffffffffffffffffffff167f18eacfcb80f18277666c9aaa9f292d376a4fdb0058757cc563a0f20ab0be120b60405160405180910390a25050565b60015f5f015f6101000a81548160ff021916908360ff16021790555068056bc75e2d631000005f60020181905550565b5f5ffd5b5f819050919050565b610a1e81610a0c565b8114610a28575f5ffd5b50565b5f81359050610a3981610a15565b92915050565b5f73ffffffffffffffffffffffffffffffffffffffff82169050919050565b5f610a6882610a3f565b9050919050565b610a7881610a5e565b8114610a82575f5ffd5b50565b5f81359050610a9381610a6f565b92915050565b5f5f60408385031215610aaf57610aae610a08565b5b5f610abc85828601610a2b565b9250506020610acd85828601610a85565b9150509250929050565b5f60208284031215610aec57610aeb610a08565b5b5f610af984828501610a85565b91505092915050565b5f60ff82169050919050565b610b1781610b02565b82525050565b610b2681610a0c565b82525050565b5f606082019050610b3f5f830186610b0e565b610b4c6020830185610b1d565b610b596040830184610b1d565b949350505050565b5f608082019050610b745f830187610b0e565b610b816020830186610b1d565b610b8e6040830185610b1d565b610b9b6060830184610b1d565b95945050505050565b5f82825260208201905092915050565b7f5b56434e4b5d20496c6c6567616c207265656e7472616e7420706f77657220645f8201527f656c697665727920726571756573742064657465637465642e00000000000000602082015250565b5f610c0e603983610ba4565b9150610c1982610bb4565b604082019050919050565b5f6020820190508181035f830152610c3b81610c02565b9050919050565b7f5b56434e4b5d2047617465776179206973206e6f7420696e20612076616c69645f8201527f20737461746520666f7220706f7765722064656c69766572792e000000000000602082015250565b5f610c9c603a83610ba4565b9150610ca782610c42565b604082019050919050565b5f6020820190508181035f830152610cc981610c90565b9050919050565b7f5b56434e4b5d2052657175657374656420706f776572206d75737420626520675f8201527f726561746572207468616e20302e000000000000000000000000000000000000602082015250565b5f610d2a602e83610ba4565b9150610d3582610cd0565b604082019050919050565b5f6020820190508181035f830152610d5781610d1e565b9050919050565b7f5b56434e4b5d20496e73756666696369656e742071756f74612e0000000000005f82015250565b5f610d92601a83610ba4565b9150610d9d82610d5e565b602082019050919050565b5f6020820190508181035f830152610dbf81610d86565b9050919050565b5f602082019050610dd95f830184610b1d565b92915050565b7f4e487b71000000000000000000000000000000000000000000000000000000005f52601160045260245ffd5b5f610e1682610a0c565b9150610e2183610a0c565b9250828203905081811115610e3957610e38610ddf565b5b92915050565b5f8115159050919050565b610e5381610e3f565b8114610e5d575f5ffd5b50565b5f81519050610e6e81610e4a565b92915050565b5f60208284031215610e8957610e88610a08565b5b5f610e9684828501610e60565b91505092915050565b7f5b56434e4b5d20506f7765722064656c6976657279206661696c65642e0000005f82015250565b5f610ed3601d83610ba4565b9150610ede82610e9f565b602082019050919050565b5f6020820190508181035f830152610f0081610ec7565b9050919050565b5f610f1182610a0c565b9150610f1c83610a0c565b9250828201905080821115610f3457610f33610ddf565b5b92915050565b7f5b56434e4b5d204465706f736974206d757374206265206772656174657220745f8201527f68616e20302e0000000000000000000000000000000000000000000000000000602082015250565b5f610f94602683610ba4565b9150610f9f82610f3a565b604082019050919050565b5f6020820190508181035f830152610fc181610f88565b9050919050565b7f5b56434e4b5d2047617465776179206973206e6f7420726567697374657265645f8201527f2e00000000000000000000000000000000000000000000000000000000000000602082015250565b5f611022602183610ba4565b915061102d82610fc8565b604082019050919050565b5f6020820190508181035f83015261104f81611016565b9050919050565b7f5b56434e4b5d205265717565737465642071756f74612065786365656473206d5f8201527f6178696d756d20616c6c6f77616e63652070657220676174657761792e000000602082015250565b5f6110b0603d83610ba4565b91506110bb82611056565b604082019050919050565b5f6020820190508181035f8301526110dd816110a4565b9050919050565b7f5b56434e4b5d204d6178696d756d206e756d626572206f6620726567697374655f8201527f72656420676174657761797320726561636865642e20496e667261737472756360208201527f747572652077696c6c206265207363616c656420757020736f6f6e2c20736f7260408201527f727920666f722074686520696e636f6e76656e69656e63652e00000000000000606082015250565b5f61118a607983610ba4565b9150611195826110e4565b608082019050919050565b5f6020820190508181035f8301526111b78161117e565b9050919050565b7f5b56434e4b5d20526567697374726174696f6e20666565206d757374206265205f8201527f32302065746865722e0000000000000000000000000000000000000000000000602082015250565b5f611218602983610ba4565b9150611223826111be565b604082019050919050565b5f6020820190508181035f8301526112458161120c565b9050919050565b7f5b56434e4b5d204761746577617920697320616c7265616479207265676973745f8201527f657265642e000000000000000000000000000000000000000000000000000000602082015250565b5f6112a6602583610ba4565b91506112b18261124c565b604082019050919050565b5f6020820190508181035f8301526112d38161129a565b905091905056fea2646970667358221220f1c77d46dd0b5fc74f88f51d8aeb10cb4bbfd4b3b2ce6190ff2e8de8a2e9097a64736f6c634300081d0033","linkReferences":{}},"methodIdentifiers":{"controlUnit()":"a12a4df8","gateways(address)":"9022c19c","registerGateway(address)":"a197d002","requestPowerDelivery(uint256,address)":"324ad586","requestQuotaIncrease(address)":"3c4426a4"},"id":1}